{
  "contractName": "OrigamiTokenCrowdsale",
  "abi": [
    {
      "constant": true,
      "inputs": [],
      "name": "TEAM_VESTING_AMOUNT",
      "outputs": [
        {
          "name": "",
          "type": "uint256"
        }
      ],
      "payable": false,
      "stateMutability": "view",
      "type": "function"
    },
    {
      "constant": true,
      "inputs": [],
      "name": "rate",
      "outputs": [
        {
          "name": "",
          "type": "uint256"
        }
      ],
      "payable": false,
      "stateMutability": "view",
      "type": "function"
    },
    {
      "constant": true,
      "inputs": [],
      "name": "endTime",
      "outputs": [
        {
          "name": "",
          "type": "uint256"
        }
      ],
      "payable": false,
      "stateMutability": "view",
      "type": "function"
    },
    {
      "constant": true,
      "inputs": [],
      "name": "cap",
      "outputs": [
        {
          "name": "",
          "type": "uint256"
        }
      ],
      "payable": false,
      "stateMutability": "view",
      "type": "function"
    },
    {
      "constant": true,
      "inputs": [],
      "name": "weiRaised",
      "outputs": [
        {
          "name": "",
          "type": "uint256"
        }
      ],
      "payable": false,
      "stateMutability": "view",
      "type": "function"
    },
    {
      "constant": true,
      "inputs": [],
      "name": "wallet",
      "outputs": [
        {
          "name": "",
          "type": "address"
        }
      ],
      "payable": false,
      "stateMutability": "view",
      "type": "function"
    },
    {
      "constant": true,
      "inputs": [],
      "name": "PERIOD_AFTERSALE_NOT_TRANSFERABLE_IN_SEC",
      "outputs": [
        {
          "name": "",
          "type": "uint256"
        }
      ],
      "payable": false,
      "stateMutability": "view",
      "type": "function"
    },
    {
      "constant": true,
      "inputs": [],
      "name": "startTime",
      "outputs": [
        {
          "name": "",
          "type": "uint256"
        }
      ],
      "payable": false,
      "stateMutability": "view",
      "type": "function"
    },
    {
      "constant": false,
      "inputs": [],
      "name": "drainRemainingToken",
      "outputs": [],
      "payable": false,
      "stateMutability": "nonpayable",
      "type": "function"
    },
    {
      "constant": true,
      "inputs": [],
      "name": "owner",
      "outputs": [
        {
          "name": "",
          "type": "address"
        }
      ],
      "payable": false,
      "stateMutability": "view",
      "type": "function"
    },
    {
      "constant": true,
      "inputs": [],
      "name": "TEAM_VESTING_WALLET",
      "outputs": [
        {
          "name": "",
          "type": "address"
        }
      ],
      "payable": false,
      "stateMutability": "view",
      "type": "function"
    },
    {
      "constant": false,
      "inputs": [],
      "name": "buyTokens",
      "outputs": [],
      "payable": true,
      "stateMutability": "payable",
      "type": "function"
    },
    {
      "constant": true,
      "inputs": [],
      "name": "BOUNTY_WALLET",
      "outputs": [
        {
          "name": "",
          "type": "address"
        }
      ],
      "payable": false,
      "stateMutability": "view",
      "type": "function"
    },
    {
      "constant": true,
      "inputs": [],
      "name": "BOUNTY_AMOUNT",
      "outputs": [
        {
          "name": "",
          "type": "uint256"
        }
      ],
      "payable": false,
      "stateMutability": "view",
      "type": "function"
    },
    {
      "constant": true,
      "inputs": [],
      "name": "hasEnded",
      "outputs": [
        {
          "name": "",
          "type": "bool"
        }
      ],
      "payable": false,
      "stateMutability": "view",
      "type": "function"
    },
    {
      "constant": false,
      "inputs": [
        {
          "name": "newOwner",
          "type": "address"
        }
      ],
      "name": "transferOwnership",
      "outputs": [],
      "payable": false,
      "stateMutability": "nonpayable",
      "type": "function"
    },
    {
      "constant": true,
      "inputs": [],
      "name": "token",
      "outputs": [
        {
          "name": "",
          "type": "address"
        }
      ],
      "payable": false,
      "stateMutability": "view",
      "type": "function"
    },
    {
      "constant": true,
      "inputs": [],
      "name": "TOTAL_ORIGAMI_TOKEN_SUPPLY",
      "outputs": [
        {
          "name": "",
          "type": "uint256"
        }
      ],
      "payable": false,
      "stateMutability": "view",
      "type": "function"
    },
    {
      "inputs": [
        {
          "name": "_startTime",
          "type": "uint256"
        },
        {
          "name": "_endTime",
          "type": "uint256"
        }
      ],
      "payable": false,
      "stateMutability": "nonpayable",
      "type": "constructor"
    },
    {
      "payable": true,
      "stateMutability": "payable",
      "type": "fallback"
    },
    {
      "anonymous": false,
      "inputs": [
        {
          "indexed": true,
          "name": "purchaser",
          "type": "address"
        },
        {
          "indexed": false,
          "name": "value",
          "type": "uint256"
        },
        {
          "indexed": false,
          "name": "amount",
          "type": "uint256"
        }
      ],
      "name": "TokenPurchase",
      "type": "event"
    },
    {
      "anonymous": false,
      "inputs": [
        {
          "indexed": true,
          "name": "previousOwner",
          "type": "address"
        },
        {
          "indexed": true,
          "name": "newOwner",
          "type": "address"
        }
      ],
      "name": "OwnershipTransferred",
      "type": "event"
    }
  ],
  "bytecode": "0x606060405234156200001057600080fd5b6040516040806200579d8339810160405280805190602001909190805190602001909190505069010f0cf064dd59200000828261177073590ebf8aa986014d0222dec60126cf935801a754336000806101000a81548173ffffffffffffffffffffffffffffffffffffffff021916908373ffffffffffffffffffffffffffffffffffffffff160217905550428410151515620000ab57600080fd5b838310151515620000bb57600080fd5b600082111515620000cb57600080fd5b60008173ffffffffffffffffffffffffffffffffffffffff1614151515620000f257600080fd5b83600281905550826003819055508160058190555080600460006101000a81548173ffffffffffffffffffffffffffffffffffffffff021916908373ffffffffffffffffffffffffffffffffffffffff16021790555062000166620003de6401000000000262000c8e176401000000009004565b600160006101000a81548173ffffffffffffffffffffffffffffffffffffffff021916908373ffffffffffffffffffffffffffffffffffffffff16021790555050505050600081111515620001ba57600080fd5b8060078190555050600160009054906101000a900473ffffffffffffffffffffffffffffffffffffffff1673ffffffffffffffffffffffffffffffffffffffff1663a9059cbb73590ebf8aa986014d0222dec60126cf935801a7546a0c685fa11e01ec6f0000006000604051602001526040518363ffffffff167c0100000000000000000000000000000000000000000000000000000000028152600401808373ffffffffffffffffffffffffffffffffffffffff1673ffffffffffffffffffffffffffffffffffffffff16815260200182815260200192505050602060405180830381600087803b1515620002af57600080fd5b6102c65a03f11515620002c157600080fd5b5050506040518051905050600160009054906101000a900473ffffffffffffffffffffffffffffffffffffffff1673ffffffffffffffffffffffffffffffffffffffff1663a9059cbb73c96c3c6831f84fa8c2c85386f3591e3be7816f916a0422ca8b0a00a4250000006000604051602001526040518363ffffffff167c0100000000000000000000000000000000000000000000000000000000028152600401808373ffffffffffffffffffffffffffffffffffffffff1673ffffffffffffffffffffffffffffffffffffffff16815260200182815260200192505050602060405180830381600087803b1515620003b957600080fd5b6102c65a03f11515620003cb57600080fd5b5050506040518051905050505062000504565b60006302faf0806200040d6203f480600354620004d46401000000000262000bc9179091906401000000009004565b73590ebf8aa986014d0222dec60126cf935801a75473c96c3c6831f84fa8c2c85386f3591e3be7816f9162000441620004f3565b808581526020018481526020018373ffffffffffffffffffffffffffffffffffffffff1673ffffffffffffffffffffffffffffffffffffffff1681526020018273ffffffffffffffffffffffffffffffffffffffff1673ffffffffffffffffffffffffffffffffffffffff168152602001945050505050604051809103906000f0801515620004cf57600080fd5b905090565b6000808284019050838110151515620004e957fe5b8091505092915050565b60405161226b806200353283390190565b61301e80620005146000396000f3006060604052600436106200010f576000357c0100000000000000000000000000000000000000000000000000000000900463ffffffff16806317cdb812146200011b5780632c4e722e14620001475780633197cbb61462000173578063355274ea146200019f5780634042b66f14620001cb578063521eb27314620001f7578063573d72b7146200024f57806378e97925146200027b57806389f6e82614620002a75780638da5cb5b14620002bf578063b5417a521462000317578063d0febe4c146200036f578063dc6055dd146200037b578063e9e4888014620003d3578063ecb70fb714620003ff578063f2fde38b146200042f578063fc0c546a146200046b578063fd8a317514620004c3575b62000119620004ef565b005b34156200012757600080fd5b620001316200069b565b6040518082815260200191505060405180910390f35b34156200015357600080fd5b6200015d620006aa565b6040518082815260200191505060405180910390f35b34156200017f57600080fd5b62000189620006b0565b6040518082815260200191505060405180910390f35b3415620001ab57600080fd5b620001b5620006b6565b6040518082815260200191505060405180910390f35b3415620001d757600080fd5b620001e1620006bc565b6040518082815260200191505060405180910390f35b34156200020357600080fd5b6200020d620006c2565b604051808273ffffffffffffffffffffffffffffffffffffffff1673ffffffffffffffffffffffffffffffffffffffff16815260200191505060405180910390f35b34156200025b57600080fd5b62000265620006e8565b6040518082815260200191505060405180910390f35b34156200028757600080fd5b62000291620006ef565b6040518082815260200191505060405180910390f35b3415620002b357600080fd5b620002bd620006f5565b005b3415620002cb57600080fd5b620002d562000949565b604051808273ffffffffffffffffffffffffffffffffffffffff1673ffffffffffffffffffffffffffffffffffffffff16815260200191505060405180910390f35b34156200032357600080fd5b6200032d6200096e565b604051808273ffffffffffffffffffffffffffffffffffffffff1673ffffffffffffffffffffffffffffffffffffffff16815260200191505060405180910390f35b62000379620004ef565b005b34156200038757600080fd5b6200039162000986565b604051808273ffffffffffffffffffffffffffffffffffffffff1673ffffffffffffffffffffffffffffffffffffffff16815260200191505060405180910390f35b3415620003df57600080fd5b620003e96200099e565b6040518082815260200191505060405180910390f35b34156200040b57600080fd5b62000415620009ad565b604051808215151515815260200191505060405180910390f35b34156200043b57600080fd5b62000469600480803573ffffffffffffffffffffffffffffffffffffffff16906020019091905050620009d3565b005b34156200047757600080fd5b6200048162000b2a565b604051808273ffffffffffffffffffffffffffffffffffffffff1673ffffffffffffffffffffffffffffffffffffffff16815260200191505060405180910390f35b3415620004cf57600080fd5b620004d962000b50565b6040518082815260200191505060405180910390f35b600080620004fc62000b58565b15156200050857600080fd5b349150620005226005548362000b9390919063ffffffff16565b90506200053b8260065462000bc990919063ffffffff16565b600681905550600160009054906101000a900473ffffffffffffffffffffffffffffffffffffffff1673ffffffffffffffffffffffffffffffffffffffff1663a9059cbb33836000604051602001526040518363ffffffff167c0100000000000000000000000000000000000000000000000000000000028152600401808373ffffffffffffffffffffffffffffffffffffffff1673ffffffffffffffffffffffffffffffffffffffff16815260200182815260200192505050602060405180830381600087803b15156200060f57600080fd5b6102c65a03f115156200062157600080fd5b5050506040518051905015156200063757600080fd5b3373ffffffffffffffffffffffffffffffffffffffff167fcd60aa75dea3072fbc07ae6d7d856b5dc5f4eee88854f5b4abf7b680ef8bc50f8383604051808381526020018281526020019250505060405180910390a26200069762000be8565b5050565b6a0c685fa11e01ec6f00000081565b60055481565b60035481565b60075481565b60065481565b600460009054906101000a900473ffffffffffffffffffffffffffffffffffffffff1681565b6203f48081565b60025481565b6000809054906101000a900473ffffffffffffffffffffffffffffffffffffffff1673ffffffffffffffffffffffffffffffffffffffff163373ffffffffffffffffffffffffffffffffffffffff161415156200075157600080fd5b6200075b620009ad565b15156200076757600080fd5b600160009054906101000a900473ffffffffffffffffffffffffffffffffffffffff1673ffffffffffffffffffffffffffffffffffffffff1663a9059cbb73590ebf8aa986014d0222dec60126cf935801a754600160009054906101000a900473ffffffffffffffffffffffffffffffffffffffff1673ffffffffffffffffffffffffffffffffffffffff166370a08231306000604051602001526040518263ffffffff167c0100000000000000000000000000000000000000000000000000000000028152600401808273ffffffffffffffffffffffffffffffffffffffff1673ffffffffffffffffffffffffffffffffffffffff168152602001915050602060405180830381600087803b15156200088057600080fd5b6102c65a03f115156200089257600080fd5b505050604051805190506000604051602001526040518363ffffffff167c0100000000000000000000000000000000000000000000000000000000028152600401808373ffffffffffffffffffffffffffffffffffffffff1673ffffffffffffffffffffffffffffffffffffffff16815260200182815260200192505050602060405180830381600087803b15156200092a57600080fd5b6102c65a03f115156200093c57600080fd5b5050506040518051905050565b6000809054906101000a900473ffffffffffffffffffffffffffffffffffffffff1681565b73590ebf8aa986014d0222dec60126cf935801a75481565b73c96c3c6831f84fa8c2c85386f3591e3be7816f9181565b6a0422ca8b0a00a42500000081565b60008060075460065410159050620009c462000c4d565b80620009cd5750805b91505090565b6000809054906101000a900473ffffffffffffffffffffffffffffffffffffffff1673ffffffffffffffffffffffffffffffffffffffff163373ffffffffffffffffffffffffffffffffffffffff1614151562000a2f57600080fd5b600073ffffffffffffffffffffffffffffffffffffffff168173ffffffffffffffffffffffffffffffffffffffff161415151562000a6c57600080fd5b8073ffffffffffffffffffffffffffffffffffffffff166000809054906101000a900473ffffffffffffffffffffffffffffffffffffffff1673ffffffffffffffffffffffffffffffffffffffff167f8be0079c531659141344cd1fd0a4f28419497f9722a3daafe3b4186f6b6457e060405160405180910390a3806000806101000a81548173ffffffffffffffffffffffffffffffffffffffff021916908373ffffffffffffffffffffffffffffffffffffffff16021790555050565b600160009054906101000a900473ffffffffffffffffffffffffffffffffffffffff1681565b6302faf08081565b60008060075462000b753460065462000bc990919063ffffffff16565b1115905062000b8362000c59565b801562000b8d5750805b91505090565b6000808284029050600084148062000bb6575082848281151562000bb357fe5b04145b151562000bbf57fe5b8091505092915050565b600080828401905083811015151562000bde57fe5b8091505092915050565b600460009054906101000a900473ffffffffffffffffffffffffffffffffffffffff1673ffffffffffffffffffffffffffffffffffffffff166108fc349081150290604051600060405180830381858888f19350505050151562000c4b57600080fd5b565b60006003544211905090565b6000806000600254421015801562000c7357506003544211155b91506000341415905081801562000c875750805b9250505090565b60006302faf08062000caf6203f48060035462000bc990919063ffffffff16565b73590ebf8aa986014d0222dec60126cf935801a75473c96c3c6831f84fa8c2c85386f3591e3be7816f9162000ce362000d76565b808581526020018481526020018373ffffffffffffffffffffffffffffffffffffffff1673ffffffffffffffffffffffffffffffffffffffff1681526020018273ffffffffffffffffffffffffffffffffffffffff1673ffffffffffffffffffffffffffffffffffffffff168152602001945050505050604051809103906000f080151562000d7157600080fd5b905090565b60405161226b8062000d8883390190560060606040526040805190810160405280600d81526020017f4f726967616d6920546f6b656e000000000000000000000000000000000000008152506004908051906020019062000051929190620003f2565b506040805190810160405280600381526020017f4f52490000000000000000000000000000000000000000000000000000000000815250600590805190602001906200009f929190620003f2565b5060126006553415620000b157600080fd5b6040516080806200226b8339810160405280805190602001909190805190602001909190805190602001909190805190602001909190505033600360006101000a81548173ffffffffffffffffffffffffffffffffffffffff021916908373ffffffffffffffffffffffffffffffffffffffff160217905550600654600a0a8402600081905550600054600160003373ffffffffffffffffffffffffffffffffffffffff1673ffffffffffffffffffffffffffffffffffffffff168152602001908152602001600020819055503373ffffffffffffffffffffffffffffffffffffffff16600073ffffffffffffffffffffffffffffffffffffffff167fddf252ad1be2c89b69c2b068fc378daa952ba7f163c4a11628f55a4df523b3ef6000546040518082815260200191505060405180910390a38260078190555033600860006101000a81548173ffffffffffffffffffffffffffffffffffffffff021916908373ffffffffffffffffffffffffffffffffffffffff16021790555080600960006101000a81548173ffffffffffffffffffffffffffffffffffffffff021916908373ffffffffffffffffffffffffffffffffffffffff1602179055506200028e82620002986401000000000262001737176401000000009004565b50505050620004a1565b600360009054906101000a900473ffffffffffffffffffffffffffffffffffffffff1673ffffffffffffffffffffffffffffffffffffffff163373ffffffffffffffffffffffffffffffffffffffff16141515620002f557600080fd5b600073ffffffffffffffffffffffffffffffffffffffff168173ffffffffffffffffffffffffffffffffffffffff16141515156200033257600080fd5b8073ffffffffffffffffffffffffffffffffffffffff16600360009054906101000a900473ffffffffffffffffffffffffffffffffffffffff1673ffffffffffffffffffffffffffffffffffffffff167f8be0079c531659141344cd1fd0a4f28419497f9722a3daafe3b4186f6b6457e060405160405180910390a380600360006101000a81548173ffffffffffffffffffffffffffffffffffffffff021916908373ffffffffffffffffffffffffffffffffffffffff16021790555050565b828054600181600116156101000203166002900490600052602060002090601f016020900481019282601f106200043557805160ff191683800117855562000466565b8280016001018555821562000466579182015b828111156200046557825182559160200191906001019062000448565b5b50905062000475919062000479565b5090565b6200049e91905b808211156200049a57600081600090555060010162000480565b5090565b90565b611dba80620004b16000396000f300606060405260043610610107576000357c0100000000000000000000000000000000000000000000000000000000900463ffffffff16806306fdde031461010c578063095ea7b31461019a57806318160ddd146101f457806323b872dd1461021d578063313ce5671461029657806342966c68146102bf5780635d5aa277146102fa578063661884631461034f57806370a08231146103a957806379cc6790146103f65780638da5cb5b1461045057806395d89b41146104a5578063a9059cbb14610533578063d73dd6231461058d578063db0e16f1146105e7578063dd62ed3e14610629578063e576052014610695578063f2fde38b146106ea578063f6f5eb5914610723575b600080fd5b341561011757600080fd5b61011f61074c565b6040518080602001828103825283818151815260200191508051906020019080838360005b8381101561015f578082015181840152602081019050610144565b50505050905090810190601f16801561018c5780820380516001836020036101000a031916815260200191505b509250505060405180910390f35b34156101a557600080fd5b6101da600480803573ffffffffffffffffffffffffffffffffffffffff169060200190919080359060200190919050506107ea565b604051808215151515815260200191505060405180910390f35b34156101ff57600080fd5b6102076108dc565b6040518082815260200191505060405180910390f35b341561022857600080fd5b61027c600480803573ffffffffffffffffffffffffffffffffffffffff1690602001909190803573ffffffffffffffffffffffffffffffffffffffff169060200190919080359060200190919050506108e2565b604051808215151515815260200191505060405180910390f35b34156102a157600080fd5b6102a9610a4d565b6040518082815260200191505060405180910390f35b34156102ca57600080fd5b6102e06004808035906020019091905050610a53565b604051808215151515815260200191505060405180910390f35b341561030557600080fd5b61030d610cda565b604051808273ffffffffffffffffffffffffffffffffffffffff1673ffffffffffffffffffffffffffffffffffffffff16815260200191505060405180910390f35b341561035a57600080fd5b61038f600480803573ffffffffffffffffffffffffffffffffffffffff16906020019091908035906020019091905050610d00565b604051808215151515815260200191505060405180910390f35b34156103b457600080fd5b6103e0600480803573ffffffffffffffffffffffffffffffffffffffff16906020019091905050610f91565b6040518082815260200191505060405180910390f35b341561040157600080fd5b610436600480803573ffffffffffffffffffffffffffffffffffffffff16906020019091908035906020019091905050610fda565b604051808215151515815260200191505060405180910390f35b341561045b57600080fd5b610463611118565b604051808273ffffffffffffffffffffffffffffffffffffffff1673ffffffffffffffffffffffffffffffffffffffff16815260200191505060405180910390f35b34156104b057600080fd5b6104b861113e565b6040518080602001828103825283818151815260200191508051906020019080838360005b838110156104f85780820151818401526020810190506104dd565b50505050905090810190601f1680156105255780820380516001836020036101000a031916815260200191505b509250505060405180910390f35b341561053e57600080fd5b610573600480803573ffffffffffffffffffffffffffffffffffffffff169060200190919080359060200190919050506111dc565b604051808215151515815260200191505060405180910390f35b341561059857600080fd5b6105cd600480803573ffffffffffffffffffffffffffffffffffffffff16906020019091908035906020019091905050611345565b604051808215151515815260200191505060405180910390f35b34156105f257600080fd5b610627600480803573ffffffffffffffffffffffffffffffffffffffff16906020019091908035906020019091905050611541565b005b341561063457600080fd5b61067f600480803573ffffffffffffffffffffffffffffffffffffffff1690602001909190803573ffffffffffffffffffffffffffffffffffffffff1690602001909190505061168a565b6040518082815260200191505060405180910390f35b34156106a057600080fd5b6106a8611711565b604051808273ffffffffffffffffffffffffffffffffffffffff1673ffffffffffffffffffffffffffffffffffffffff16815260200191505060405180910390f35b34156106f557600080fd5b610721600480803573ffffffffffffffffffffffffffffffffffffffff16906020019091905050611737565b005b341561072e57600080fd5b61073661188f565b6040518082815260200191505060405180910390f35b60048054600181600116156101000203166002900480601f0160208091040260200160405190810160405280929190818152602001828054600181600116156101000203166002900480156107e25780601f106107b7576101008083540402835291602001916107e2565b820191906000526020600020905b8154815290600101906020018083116107c557829003601f168201915b505050505081565b600081600260003373ffffffffffffffffffffffffffffffffffffffff1673ffffffffffffffffffffffffffffffffffffffff16815260200190815260200160002060008573ffffffffffffffffffffffffffffffffffffffff1673ffffffffffffffffffffffffffffffffffffffff168152602001908152602001600020819055508273ffffffffffffffffffffffffffffffffffffffff163373ffffffffffffffffffffffffffffffffffffffff167f8c5be1e5ebec7d5bd14f71427d1e84f3dd0314c0f7b2291e5b200ac8c7c3b925846040518082815260200191505060405180910390a36001905092915050565b60005481565b6000823073ffffffffffffffffffffffffffffffffffffffff168173ffffffffffffffffffffffffffffffffffffffff161415151561092057600080fd5b60075442111515610a3857600860009054906101000a900473ffffffffffffffffffffffffffffffffffffffff1673ffffffffffffffffffffffffffffffffffffffff163373ffffffffffffffffffffffffffffffffffffffff1614806109d45750600960009054906101000a900473ffffffffffffffffffffffffffffffffffffffff1673ffffffffffffffffffffffffffffffffffffffff163373ffffffffffffffffffffffffffffffffffffffff16145b80610a2c5750600360009054906101000a900473ffffffffffffffffffffffffffffffffffffffff1673ffffffffffffffffffffffffffffffffffffffff163373ffffffffffffffffffffffffffffffffffffffff16145b1515610a3757600080fd5b5b610a43858585611895565b9150509392505050565b60065481565b600060075442111515610b6d57600860009054906101000a900473ffffffffffffffffffffffffffffffffffffffff1673ffffffffffffffffffffffffffffffffffffffff163373ffffffffffffffffffffffffffffffffffffffff161480610b095750600960009054906101000a900473ffffffffffffffffffffffffffffffffffffffff1673ffffffffffffffffffffffffffffffffffffffff163373ffffffffffffffffffffffffffffffffffffffff16145b80610b615750600360009054906101000a900473ffffffffffffffffffffffffffffffffffffffff1673ffffffffffffffffffffffffffffffffffffffff163373ffffffffffffffffffffffffffffffffffffffff16145b1515610b6c57600080fd5b5b610bbf82600160003373ffffffffffffffffffffffffffffffffffffffff1673ffffffffffffffffffffffffffffffffffffffff16815260200190815260200160002054611b8190919063ffffffff16565b600160003373ffffffffffffffffffffffffffffffffffffffff1673ffffffffffffffffffffffffffffffffffffffff16815260200190815260200160002081905550610c1782600054611b8190919063ffffffff16565b6000819055503373ffffffffffffffffffffffffffffffffffffffff167fcc16f5dbb4873280815c1ee09dbd06736cffcc184412cf7a71a0fdb75d397ca5836040518082815260200191505060405180910390a2600073ffffffffffffffffffffffffffffffffffffffff163373ffffffffffffffffffffffffffffffffffffffff167fddf252ad1be2c89b69c2b068fc378daa952ba7f163c4a11628f55a4df523b3ef846040518082815260200191505060405180910390a360019050919050565b600860009054906101000a900473ffffffffffffffffffffffffffffffffffffffff1681565b600080600260003373ffffffffffffffffffffffffffffffffffffffff1673ffffffffffffffffffffffffffffffffffffffff16815260200190815260200160002060008573ffffffffffffffffffffffffffffffffffffffff1673ffffffffffffffffffffffffffffffffffffffff16815260200190815260200160002054905080831115610e11576000600260003373ffffffffffffffffffffffffffffffffffffffff1673ffffffffffffffffffffffffffffffffffffffff16815260200190815260200160002060008673ffffffffffffffffffffffffffffffffffffffff1673ffffffffffffffffffffffffffffffffffffffff16815260200190815260200160002081905550610ea5565b610e248382611b8190919063ffffffff16565b600260003373ffffffffffffffffffffffffffffffffffffffff1673ffffffffffffffffffffffffffffffffffffffff16815260200190815260200160002060008673ffffffffffffffffffffffffffffffffffffffff1673ffffffffffffffffffffffffffffffffffffffff168152602001908152602001600020819055505b8373ffffffffffffffffffffffffffffffffffffffff163373ffffffffffffffffffffffffffffffffffffffff167f8c5be1e5ebec7d5bd14f71427d1e84f3dd0314c0f7b2291e5b200ac8c7c3b925600260003373ffffffffffffffffffffffffffffffffffffffff1673ffffffffffffffffffffffffffffffffffffffff16815260200190815260200160002060008873ffffffffffffffffffffffffffffffffffffffff1673ffffffffffffffffffffffffffffffffffffffff168152602001908152602001600020546040518082815260200191505060405180910390a3600191505092915050565b6000600160008373ffffffffffffffffffffffffffffffffffffffff1673ffffffffffffffffffffffffffffffffffffffff168152602001908152602001600020549050919050565b6000600754421115156110f457600860009054906101000a900473ffffffffffffffffffffffffffffffffffffffff1673ffffffffffffffffffffffffffffffffffffffff163373ffffffffffffffffffffffffffffffffffffffff1614806110905750600960009054906101000a900473ffffffffffffffffffffffffffffffffffffffff1673ffffffffffffffffffffffffffffffffffffffff163373ffffffffffffffffffffffffffffffffffffffff16145b806110e85750600360009054906101000a900473ffffffffffffffffffffffffffffffffffffffff1673ffffffffffffffffffffffffffffffffffffffff163373ffffffffffffffffffffffffffffffffffffffff16145b15156110f357600080fd5b5b6110ff8333846108e2565b151561110757fe5b61111082610a53565b905092915050565b600360009054906101000a900473ffffffffffffffffffffffffffffffffffffffff1681565b60058054600181600116156101000203166002900480601f0160208091040260200160405190810160405280929190818152602001828054600181600116156101000203166002900480156111d45780601f106111a9576101008083540402835291602001916111d4565b820191906000526020600020905b8154815290600101906020018083116111b757829003601f168201915b505050505081565b6000823073ffffffffffffffffffffffffffffffffffffffff168173ffffffffffffffffffffffffffffffffffffffff161415151561121a57600080fd5b6007544211151561133257600860009054906101000a900473ffffffffffffffffffffffffffffffffffffffff1673ffffffffffffffffffffffffffffffffffffffff163373ffffffffffffffffffffffffffffffffffffffff1614806112ce5750600960009054906101000a900473ffffffffffffffffffffffffffffffffffffffff1673ffffffffffffffffffffffffffffffffffffffff163373ffffffffffffffffffffffffffffffffffffffff16145b806113265750600360009054906101000a900473ffffffffffffffffffffffffffffffffffffffff1673ffffffffffffffffffffffffffffffffffffffff163373ffffffffffffffffffffffffffffffffffffffff16145b151561133157600080fd5b5b61133c8484611b9a565b91505092915050565b60006113d682600260003373ffffffffffffffffffffffffffffffffffffffff1673ffffffffffffffffffffffffffffffffffffffff16815260200190815260200160002060008673ffffffffffffffffffffffffffffffffffffffff1673ffffffffffffffffffffffffffffffffffffffff16815260200190815260200160002054611d7090919063ffffffff16565b600260003373ffffffffffffffffffffffffffffffffffffffff1673ffffffffffffffffffffffffffffffffffffffff16815260200190815260200160002060008573ffffffffffffffffffffffffffffffffffffffff1673ffffffffffffffffffffffffffffffffffffffff168152602001908152602001600020819055508273ffffffffffffffffffffffffffffffffffffffff163373ffffffffffffffffffffffffffffffffffffffff167f8c5be1e5ebec7d5bd14f71427d1e84f3dd0314c0f7b2291e5b200ac8c7c3b925600260003373ffffffffffffffffffffffffffffffffffffffff1673ffffffffffffffffffffffffffffffffffffffff16815260200190815260200160002060008773ffffffffffffffffffffffffffffffffffffffff1673ffffffffffffffffffffffffffffffffffffffff168152602001908152602001600020546040518082815260200191505060405180910390a36001905092915050565b600360009054906101000a900473ffffffffffffffffffffffffffffffffffffffff1673ffffffffffffffffffffffffffffffffffffffff163373ffffffffffffffffffffffffffffffffffffffff1614151561159d57600080fd5b8173ffffffffffffffffffffffffffffffffffffffff1663a9059cbb600360009054906101000a900473ffffffffffffffffffffffffffffffffffffffff16836000604051602001526040518363ffffffff167c0100000000000000000000000000000000000000000000000000000000028152600401808373ffffffffffffffffffffffffffffffffffffffff1673ffffffffffffffffffffffffffffffffffffffff16815260200182815260200192505050602060405180830381600087803b151561166a57600080fd5b6102c65a03f1151561167b57600080fd5b50505060405180519050505050565b6000600260008473ffffffffffffffffffffffffffffffffffffffff1673ffffffffffffffffffffffffffffffffffffffff16815260200190815260200160002060008373ffffffffffffffffffffffffffffffffffffffff1673ffffffffffffffffffffffffffffffffffffffff16815260200190815260200160002054905092915050565b600960009054906101000a900473ffffffffffffffffffffffffffffffffffffffff1681565b600360009054906101000a900473ffffffffffffffffffffffffffffffffffffffff1673ffffffffffffffffffffffffffffffffffffffff163373ffffffffffffffffffffffffffffffffffffffff1614151561179357600080fd5b600073ffffffffffffffffffffffffffffffffffffffff168173ffffffffffffffffffffffffffffffffffffffff16141515156117cf57600080fd5b8073ffffffffffffffffffffffffffffffffffffffff16600360009054906101000a900473ffffffffffffffffffffffffffffffffffffffff1673ffffffffffffffffffffffffffffffffffffffff167f8be0079c531659141344cd1fd0a4f28419497f9722a3daafe3b4186f6b6457e060405160405180910390a380600360006101000a81548173ffffffffffffffffffffffffffffffffffffffff021916908373ffffffffffffffffffffffffffffffffffffffff16021790555050565b60075481565b600080600073ffffffffffffffffffffffffffffffffffffffff168473ffffffffffffffffffffffffffffffffffffffff16141515156118d457600080fd5b600260008673ffffffffffffffffffffffffffffffffffffffff1673ffffffffffffffffffffffffffffffffffffffff16815260200190815260200160002060003373ffffffffffffffffffffffffffffffffffffffff1673ffffffffffffffffffffffffffffffffffffffff1681526020019081526020016000205490506119a583600160008873ffffffffffffffffffffffffffffffffffffffff1673ffffffffffffffffffffffffffffffffffffffff16815260200190815260200160002054611b8190919063ffffffff16565b600160008773ffffffffffffffffffffffffffffffffffffffff1673ffffffffffffffffffffffffffffffffffffffff16815260200190815260200160002081905550611a3a83600160008773ffffffffffffffffffffffffffffffffffffffff1673ffffffffffffffffffffffffffffffffffffffff16815260200190815260200160002054611d7090919063ffffffff16565b600160008673ffffffffffffffffffffffffffffffffffffffff1673ffffffffffffffffffffffffffffffffffffffff16815260200190815260200160002081905550611a908382611b8190919063ffffffff16565b600260008773ffffffffffffffffffffffffffffffffffffffff1673ffffffffffffffffffffffffffffffffffffffff16815260200190815260200160002060003373ffffffffffffffffffffffffffffffffffffffff1673ffffffffffffffffffffffffffffffffffffffff168152602001908152602001600020819055508373ffffffffffffffffffffffffffffffffffffffff168573ffffffffffffffffffffffffffffffffffffffff167fddf252ad1be2c89b69c2b068fc378daa952ba7f163c4a11628f55a4df523b3ef856040518082815260200191505060405180910390a360019150509392505050565b6000828211151515611b8f57fe5b818303905092915050565b60008073ffffffffffffffffffffffffffffffffffffffff168373ffffffffffffffffffffffffffffffffffffffff1614151515611bd757600080fd5b611c2982600160003373ffffffffffffffffffffffffffffffffffffffff1673ffffffffffffffffffffffffffffffffffffffff16815260200190815260200160002054611b8190919063ffffffff16565b600160003373ffffffffffffffffffffffffffffffffffffffff1673ffffffffffffffffffffffffffffffffffffffff16815260200190815260200160002081905550611cbe82600160008673ffffffffffffffffffffffffffffffffffffffff1673ffffffffffffffffffffffffffffffffffffffff16815260200190815260200160002054611d7090919063ffffffff16565b600160008573ffffffffffffffffffffffffffffffffffffffff1673ffffffffffffffffffffffffffffffffffffffff168152602001908152602001600020819055508273ffffffffffffffffffffffffffffffffffffffff163373ffffffffffffffffffffffffffffffffffffffff167fddf252ad1be2c89b69c2b068fc378daa952ba7f163c4a11628f55a4df523b3ef846040518082815260200191505060405180910390a36001905092915050565b6000808284019050838110151515611d8457fe5b80915050929150505600a165627a7a723058204898ce3e41aff349f1b0b36ec21ae1be4f697f3101270ecee1e19af91eb46c210029a165627a7a7230582040808b910589a7f44fd0a344b530a384e91d095c119a9f90a3d5a7b24fa023be002960606040526040805190810160405280600d81526020017f4f726967616d6920546f6b656e000000000000000000000000000000000000008152506004908051906020019062000051929190620003f2565b506040805190810160405280600381526020017f4f52490000000000000000000000000000000000000000000000000000000000815250600590805190602001906200009f929190620003f2565b5060126006553415620000b157600080fd5b6040516080806200226b8339810160405280805190602001909190805190602001909190805190602001909190805190602001909190505033600360006101000a81548173ffffffffffffffffffffffffffffffffffffffff021916908373ffffffffffffffffffffffffffffffffffffffff160217905550600654600a0a8402600081905550600054600160003373ffffffffffffffffffffffffffffffffffffffff1673ffffffffffffffffffffffffffffffffffffffff168152602001908152602001600020819055503373ffffffffffffffffffffffffffffffffffffffff16600073ffffffffffffffffffffffffffffffffffffffff167fddf252ad1be2c89b69c2b068fc378daa952ba7f163c4a11628f55a4df523b3ef6000546040518082815260200191505060405180910390a38260078190555033600860006101000a81548173ffffffffffffffffffffffffffffffffffffffff021916908373ffffffffffffffffffffffffffffffffffffffff16021790555080600960006101000a81548173ffffffffffffffffffffffffffffffffffffffff021916908373ffffffffffffffffffffffffffffffffffffffff1602179055506200028e82620002986401000000000262001737176401000000009004565b50505050620004a1565b600360009054906101000a900473ffffffffffffffffffffffffffffffffffffffff1673ffffffffffffffffffffffffffffffffffffffff163373ffffffffffffffffffffffffffffffffffffffff16141515620002f557600080fd5b600073ffffffffffffffffffffffffffffffffffffffff168173ffffffffffffffffffffffffffffffffffffffff16141515156200033257600080fd5b8073ffffffffffffffffffffffffffffffffffffffff16600360009054906101000a900473ffffffffffffffffffffffffffffffffffffffff1673ffffffffffffffffffffffffffffffffffffffff167f8be0079c531659141344cd1fd0a4f28419497f9722a3daafe3b4186f6b6457e060405160405180910390a380600360006101000a81548173ffffffffffffffffffffffffffffffffffffffff021916908373ffffffffffffffffffffffffffffffffffffffff16021790555050565b828054600181600116156101000203166002900490600052602060002090601f016020900481019282601f106200043557805160ff191683800117855562000466565b8280016001018555821562000466579182015b828111156200046557825182559160200191906001019062000448565b5b50905062000475919062000479565b5090565b6200049e91905b808211156200049a57600081600090555060010162000480565b5090565b90565b611dba80620004b16000396000f300606060405260043610610107576000357c0100000000000000000000000000000000000000000000000000000000900463ffffffff16806306fdde031461010c578063095ea7b31461019a57806318160ddd146101f457806323b872dd1461021d578063313ce5671461029657806342966c68146102bf5780635d5aa277146102fa578063661884631461034f57806370a08231146103a957806379cc6790146103f65780638da5cb5b1461045057806395d89b41146104a5578063a9059cbb14610533578063d73dd6231461058d578063db0e16f1146105e7578063dd62ed3e14610629578063e576052014610695578063f2fde38b146106ea578063f6f5eb5914610723575b600080fd5b341561011757600080fd5b61011f61074c565b6040518080602001828103825283818151815260200191508051906020019080838360005b8381101561015f578082015181840152602081019050610144565b50505050905090810190601f16801561018c5780820380516001836020036101000a031916815260200191505b509250505060405180910390f35b34156101a557600080fd5b6101da600480803573ffffffffffffffffffffffffffffffffffffffff169060200190919080359060200190919050506107ea565b604051808215151515815260200191505060405180910390f35b34156101ff57600080fd5b6102076108dc565b6040518082815260200191505060405180910390f35b341561022857600080fd5b61027c600480803573ffffffffffffffffffffffffffffffffffffffff1690602001909190803573ffffffffffffffffffffffffffffffffffffffff169060200190919080359060200190919050506108e2565b604051808215151515815260200191505060405180910390f35b34156102a157600080fd5b6102a9610a4d565b6040518082815260200191505060405180910390f35b34156102ca57600080fd5b6102e06004808035906020019091905050610a53565b604051808215151515815260200191505060405180910390f35b341561030557600080fd5b61030d610cda565b604051808273ffffffffffffffffffffffffffffffffffffffff1673ffffffffffffffffffffffffffffffffffffffff16815260200191505060405180910390f35b341561035a57600080fd5b61038f600480803573ffffffffffffffffffffffffffffffffffffffff16906020019091908035906020019091905050610d00565b604051808215151515815260200191505060405180910390f35b34156103b457600080fd5b6103e0600480803573ffffffffffffffffffffffffffffffffffffffff16906020019091905050610f91565b6040518082815260200191505060405180910390f35b341561040157600080fd5b610436600480803573ffffffffffffffffffffffffffffffffffffffff16906020019091908035906020019091905050610fda565b604051808215151515815260200191505060405180910390f35b341561045b57600080fd5b610463611118565b604051808273ffffffffffffffffffffffffffffffffffffffff1673ffffffffffffffffffffffffffffffffffffffff16815260200191505060405180910390f35b34156104b057600080fd5b6104b861113e565b6040518080602001828103825283818151815260200191508051906020019080838360005b838110156104f85780820151818401526020810190506104dd565b50505050905090810190601f1680156105255780820380516001836020036101000a031916815260200191505b509250505060405180910390f35b341561053e57600080fd5b610573600480803573ffffffffffffffffffffffffffffffffffffffff169060200190919080359060200190919050506111dc565b604051808215151515815260200191505060405180910390f35b341561059857600080fd5b6105cd600480803573ffffffffffffffffffffffffffffffffffffffff16906020019091908035906020019091905050611345565b604051808215151515815260200191505060405180910390f35b34156105f257600080fd5b610627600480803573ffffffffffffffffffffffffffffffffffffffff16906020019091908035906020019091905050611541565b005b341561063457600080fd5b61067f600480803573ffffffffffffffffffffffffffffffffffffffff1690602001909190803573ffffffffffffffffffffffffffffffffffffffff1690602001909190505061168a565b6040518082815260200191505060405180910390f35b34156106a057600080fd5b6106a8611711565b604051808273ffffffffffffffffffffffffffffffffffffffff1673ffffffffffffffffffffffffffffffffffffffff16815260200191505060405180910390f35b34156106f557600080fd5b610721600480803573ffffffffffffffffffffffffffffffffffffffff16906020019091905050611737565b005b341561072e57600080fd5b61073661188f565b6040518082815260200191505060405180910390f35b60048054600181600116156101000203166002900480601f0160208091040260200160405190810160405280929190818152602001828054600181600116156101000203166002900480156107e25780601f106107b7576101008083540402835291602001916107e2565b820191906000526020600020905b8154815290600101906020018083116107c557829003601f168201915b505050505081565b600081600260003373ffffffffffffffffffffffffffffffffffffffff1673ffffffffffffffffffffffffffffffffffffffff16815260200190815260200160002060008573ffffffffffffffffffffffffffffffffffffffff1673ffffffffffffffffffffffffffffffffffffffff168152602001908152602001600020819055508273ffffffffffffffffffffffffffffffffffffffff163373ffffffffffffffffffffffffffffffffffffffff167f8c5be1e5ebec7d5bd14f71427d1e84f3dd0314c0f7b2291e5b200ac8c7c3b925846040518082815260200191505060405180910390a36001905092915050565b60005481565b6000823073ffffffffffffffffffffffffffffffffffffffff168173ffffffffffffffffffffffffffffffffffffffff161415151561092057600080fd5b60075442111515610a3857600860009054906101000a900473ffffffffffffffffffffffffffffffffffffffff1673ffffffffffffffffffffffffffffffffffffffff163373ffffffffffffffffffffffffffffffffffffffff1614806109d45750600960009054906101000a900473ffffffffffffffffffffffffffffffffffffffff1673ffffffffffffffffffffffffffffffffffffffff163373ffffffffffffffffffffffffffffffffffffffff16145b80610a2c5750600360009054906101000a900473ffffffffffffffffffffffffffffffffffffffff1673ffffffffffffffffffffffffffffffffffffffff163373ffffffffffffffffffffffffffffffffffffffff16145b1515610a3757600080fd5b5b610a43858585611895565b9150509392505050565b60065481565b600060075442111515610b6d57600860009054906101000a900473ffffffffffffffffffffffffffffffffffffffff1673ffffffffffffffffffffffffffffffffffffffff163373ffffffffffffffffffffffffffffffffffffffff161480610b095750600960009054906101000a900473ffffffffffffffffffffffffffffffffffffffff1673ffffffffffffffffffffffffffffffffffffffff163373ffffffffffffffffffffffffffffffffffffffff16145b80610b615750600360009054906101000a900473ffffffffffffffffffffffffffffffffffffffff1673ffffffffffffffffffffffffffffffffffffffff163373ffffffffffffffffffffffffffffffffffffffff16145b1515610b6c57600080fd5b5b610bbf82600160003373ffffffffffffffffffffffffffffffffffffffff1673ffffffffffffffffffffffffffffffffffffffff16815260200190815260200160002054611b8190919063ffffffff16565b600160003373ffffffffffffffffffffffffffffffffffffffff1673ffffffffffffffffffffffffffffffffffffffff16815260200190815260200160002081905550610c1782600054611b8190919063ffffffff16565b6000819055503373ffffffffffffffffffffffffffffffffffffffff167fcc16f5dbb4873280815c1ee09dbd06736cffcc184412cf7a71a0fdb75d397ca5836040518082815260200191505060405180910390a2600073ffffffffffffffffffffffffffffffffffffffff163373ffffffffffffffffffffffffffffffffffffffff167fddf252ad1be2c89b69c2b068fc378daa952ba7f163c4a11628f55a4df523b3ef846040518082815260200191505060405180910390a360019050919050565b600860009054906101000a900473ffffffffffffffffffffffffffffffffffffffff1681565b600080600260003373ffffffffffffffffffffffffffffffffffffffff1673ffffffffffffffffffffffffffffffffffffffff16815260200190815260200160002060008573ffffffffffffffffffffffffffffffffffffffff1673ffffffffffffffffffffffffffffffffffffffff16815260200190815260200160002054905080831115610e11576000600260003373ffffffffffffffffffffffffffffffffffffffff1673ffffffffffffffffffffffffffffffffffffffff16815260200190815260200160002060008673ffffffffffffffffffffffffffffffffffffffff1673ffffffffffffffffffffffffffffffffffffffff16815260200190815260200160002081905550610ea5565b610e248382611b8190919063ffffffff16565b600260003373ffffffffffffffffffffffffffffffffffffffff1673ffffffffffffffffffffffffffffffffffffffff16815260200190815260200160002060008673ffffffffffffffffffffffffffffffffffffffff1673ffffffffffffffffffffffffffffffffffffffff168152602001908152602001600020819055505b8373ffffffffffffffffffffffffffffffffffffffff163373ffffffffffffffffffffffffffffffffffffffff167f8c5be1e5ebec7d5bd14f71427d1e84f3dd0314c0f7b2291e5b200ac8c7c3b925600260003373ffffffffffffffffffffffffffffffffffffffff1673ffffffffffffffffffffffffffffffffffffffff16815260200190815260200160002060008873ffffffffffffffffffffffffffffffffffffffff1673ffffffffffffffffffffffffffffffffffffffff168152602001908152602001600020546040518082815260200191505060405180910390a3600191505092915050565b6000600160008373ffffffffffffffffffffffffffffffffffffffff1673ffffffffffffffffffffffffffffffffffffffff168152602001908152602001600020549050919050565b6000600754421115156110f457600860009054906101000a900473ffffffffffffffffffffffffffffffffffffffff1673ffffffffffffffffffffffffffffffffffffffff163373ffffffffffffffffffffffffffffffffffffffff1614806110905750600960009054906101000a900473ffffffffffffffffffffffffffffffffffffffff1673ffffffffffffffffffffffffffffffffffffffff163373ffffffffffffffffffffffffffffffffffffffff16145b806110e85750600360009054906101000a900473ffffffffffffffffffffffffffffffffffffffff1673ffffffffffffffffffffffffffffffffffffffff163373ffffffffffffffffffffffffffffffffffffffff16145b15156110f357600080fd5b5b6110ff8333846108e2565b151561110757fe5b61111082610a53565b905092915050565b600360009054906101000a900473ffffffffffffffffffffffffffffffffffffffff1681565b60058054600181600116156101000203166002900480601f0160208091040260200160405190810160405280929190818152602001828054600181600116156101000203166002900480156111d45780601f106111a9576101008083540402835291602001916111d4565b820191906000526020600020905b8154815290600101906020018083116111b757829003601f168201915b505050505081565b6000823073ffffffffffffffffffffffffffffffffffffffff168173ffffffffffffffffffffffffffffffffffffffff161415151561121a57600080fd5b6007544211151561133257600860009054906101000a900473ffffffffffffffffffffffffffffffffffffffff1673ffffffffffffffffffffffffffffffffffffffff163373ffffffffffffffffffffffffffffffffffffffff1614806112ce5750600960009054906101000a900473ffffffffffffffffffffffffffffffffffffffff1673ffffffffffffffffffffffffffffffffffffffff163373ffffffffffffffffffffffffffffffffffffffff16145b806113265750600360009054906101000a900473ffffffffffffffffffffffffffffffffffffffff1673ffffffffffffffffffffffffffffffffffffffff163373ffffffffffffffffffffffffffffffffffffffff16145b151561133157600080fd5b5b61133c8484611b9a565b91505092915050565b60006113d682600260003373ffffffffffffffffffffffffffffffffffffffff1673ffffffffffffffffffffffffffffffffffffffff16815260200190815260200160002060008673ffffffffffffffffffffffffffffffffffffffff1673ffffffffffffffffffffffffffffffffffffffff16815260200190815260200160002054611d7090919063ffffffff16565b600260003373ffffffffffffffffffffffffffffffffffffffff1673ffffffffffffffffffffffffffffffffffffffff16815260200190815260200160002060008573ffffffffffffffffffffffffffffffffffffffff1673ffffffffffffffffffffffffffffffffffffffff168152602001908152602001600020819055508273ffffffffffffffffffffffffffffffffffffffff163373ffffffffffffffffffffffffffffffffffffffff167f8c5be1e5ebec7d5bd14f71427d1e84f3dd0314c0f7b2291e5b200ac8c7c3b925600260003373ffffffffffffffffffffffffffffffffffffffff1673ffffffffffffffffffffffffffffffffffffffff16815260200190815260200160002060008773ffffffffffffffffffffffffffffffffffffffff1673ffffffffffffffffffffffffffffffffffffffff168152602001908152602001600020546040518082815260200191505060405180910390a36001905092915050565b600360009054906101000a900473ffffffffffffffffffffffffffffffffffffffff1673ffffffffffffffffffffffffffffffffffffffff163373ffffffffffffffffffffffffffffffffffffffff1614151561159d57600080fd5b8173ffffffffffffffffffffffffffffffffffffffff1663a9059cbb600360009054906101000a900473ffffffffffffffffffffffffffffffffffffffff16836000604051602001526040518363ffffffff167c0100000000000000000000000000000000000000000000000000000000028152600401808373ffffffffffffffffffffffffffffffffffffffff1673ffffffffffffffffffffffffffffffffffffffff16815260200182815260200192505050602060405180830381600087803b151561166a57600080fd5b6102c65a03f1151561167b57600080fd5b50505060405180519050505050565b6000600260008473ffffffffffffffffffffffffffffffffffffffff1673ffffffffffffffffffffffffffffffffffffffff16815260200190815260200160002060008373ffffffffffffffffffffffffffffffffffffffff1673ffffffffffffffffffffffffffffffffffffffff16815260200190815260200160002054905092915050565b600960009054906101000a900473ffffffffffffffffffffffffffffffffffffffff1681565b600360009054906101000a900473ffffffffffffffffffffffffffffffffffffffff1673ffffffffffffffffffffffffffffffffffffffff163373ffffffffffffffffffffffffffffffffffffffff1614151561179357600080fd5b600073ffffffffffffffffffffffffffffffffffffffff168173ffffffffffffffffffffffffffffffffffffffff16141515156117cf57600080fd5b8073ffffffffffffffffffffffffffffffffffffffff16600360009054906101000a900473ffffffffffffffffffffffffffffffffffffffff1673ffffffffffffffffffffffffffffffffffffffff167f8be0079c531659141344cd1fd0a4f28419497f9722a3daafe3b4186f6b6457e060405160405180910390a380600360006101000a81548173ffffffffffffffffffffffffffffffffffffffff021916908373ffffffffffffffffffffffffffffffffffffffff16021790555050565b60075481565b600080600073ffffffffffffffffffffffffffffffffffffffff168473ffffffffffffffffffffffffffffffffffffffff16141515156118d457600080fd5b600260008673ffffffffffffffffffffffffffffffffffffffff1673ffffffffffffffffffffffffffffffffffffffff16815260200190815260200160002060003373ffffffffffffffffffffffffffffffffffffffff1673ffffffffffffffffffffffffffffffffffffffff1681526020019081526020016000205490506119a583600160008873ffffffffffffffffffffffffffffffffffffffff1673ffffffffffffffffffffffffffffffffffffffff16815260200190815260200160002054611b8190919063ffffffff16565b600160008773ffffffffffffffffffffffffffffffffffffffff1673ffffffffffffffffffffffffffffffffffffffff16815260200190815260200160002081905550611a3a83600160008773ffffffffffffffffffffffffffffffffffffffff1673ffffffffffffffffffffffffffffffffffffffff16815260200190815260200160002054611d7090919063ffffffff16565b600160008673ffffffffffffffffffffffffffffffffffffffff1673ffffffffffffffffffffffffffffffffffffffff16815260200190815260200160002081905550611a908382611b8190919063ffffffff16565b600260008773ffffffffffffffffffffffffffffffffffffffff1673ffffffffffffffffffffffffffffffffffffffff16815260200190815260200160002060003373ffffffffffffffffffffffffffffffffffffffff1673ffffffffffffffffffffffffffffffffffffffff168152602001908152602001600020819055508373ffffffffffffffffffffffffffffffffffffffff168573ffffffffffffffffffffffffffffffffffffffff167fddf252ad1be2c89b69c2b068fc378daa952ba7f163c4a11628f55a4df523b3ef856040518082815260200191505060405180910390a360019150509392505050565b6000828211151515611b8f57fe5b818303905092915050565b60008073ffffffffffffffffffffffffffffffffffffffff168373ffffffffffffffffffffffffffffffffffffffff1614151515611bd757600080fd5b611c2982600160003373ffffffffffffffffffffffffffffffffffffffff1673ffffffffffffffffffffffffffffffffffffffff16815260200190815260200160002054611b8190919063ffffffff16565b600160003373ffffffffffffffffffffffffffffffffffffffff1673ffffffffffffffffffffffffffffffffffffffff16815260200190815260200160002081905550611cbe82600160008673ffffffffffffffffffffffffffffffffffffffff1673ffffffffffffffffffffffffffffffffffffffff16815260200190815260200160002054611d7090919063ffffffff16565b600160008573ffffffffffffffffffffffffffffffffffffffff1673ffffffffffffffffffffffffffffffffffffffff168152602001908152602001600020819055508273ffffffffffffffffffffffffffffffffffffffff163373ffffffffffffffffffffffffffffffffffffffff167fddf252ad1be2c89b69c2b068fc378daa952ba7f163c4a11628f55a4df523b3ef846040518082815260200191505060405180910390a36001905092915050565b6000808284019050838110151515611d8457fe5b80915050929150505600a165627a7a723058204898ce3e41aff349f1b0b36ec21ae1be4f697f3101270ecee1e19af91eb46c210029",
  "source": "pragma solidity ^0.4.17;\n\nimport \"./base/crowdsale/CappedCrowdsale.sol\";\nimport \"./base/token/StandardToken.sol\";\nimport './OrigamiToken.sol';\n\n\n/**\n * @title OrigamiTokenCrowdsale\n * @dev \n * We add new features to a base crowdsale using multiple inheritance.\n * We are using the following extensions:\n * CappedCrowdsale - sets a max boundary for raised funds\n * WhitelistedCrowdsale - add a whitelist\n *  *\n * The code is based on the contracts of Open Zeppelin and we add our contracts : OrigamiTokenCrowdsale and the Origami Token\n *\n * @author ori.network\n */\ncontract OrigamiTokenCrowdsale is Ownable, StandardCrowdsale, CappedCrowdsale {\n\n\t// hard cap of the token sale in ether\n    uint private constant HARD_CAP_IN_WEI = 5000 ether;\n\t\n\t// Total of Origami Token supply\n    uint public constant TOTAL_ORIGAMI_TOKEN_SUPPLY = 50000000;\n    \n    // Token sale rate from ETH to ORI\n    uint private constant RATE_ETH_ORI = 6000;\n    \n    // Token initialy distributed for the company (30%)\n    address public constant TEAM_VESTING_WALLET = 0x590ebF8aa986014d0222deC60126Cf935801A754;\n    uint public constant TEAM_VESTING_AMOUNT = 15000000e18;\n\n    // Token initialy distributed for the early investor (10%)\n    address public constant BOUNTY_WALLET = 0xc96C3C6831F84fA8C2C85386F3591e3be7816f91;\n    uint public constant BOUNTY_AMOUNT = 5000000e18;\n\n    // PERIOD WHEN TOKEN IS NOT TRANSFERABLE AFTER THE SALE\n    uint public constant PERIOD_AFTERSALE_NOT_TRANSFERABLE_IN_SEC = 3 days;\n\n\n\tfunction OrigamiTokenCrowdsale(uint256 _startTime, uint256 _endTime)\n      CappedCrowdsale(HARD_CAP_IN_WEI)\n      StandardCrowdsale(_startTime, _endTime, RATE_ETH_ORI, TEAM_VESTING_WALLET)\n    {\n        token.transfer(TEAM_VESTING_WALLET, TEAM_VESTING_AMOUNT);\n        token.transfer(BOUNTY_WALLET, BOUNTY_AMOUNT);\n    }\n\n\n\t/**\n     * @dev Create the Origami token (override createTokenContract of StandardCrowdsale)\n     * @return the StandardToken created\n     */\n    function createTokenContract () \n      internal \n      returns(StandardToken) \n    {\n        return new OrigamiToken(TOTAL_ORIGAMI_TOKEN_SUPPLY, endTime.add(PERIOD_AFTERSALE_NOT_TRANSFERABLE_IN_SEC), TEAM_VESTING_WALLET, BOUNTY_WALLET);\n    }\n\n    /**\n     * @dev Transfer the unsold tokens to the team multisign wallet \n     * @dev Only for owner\n     * @return the StandardToken created\n     */\n    function drainRemainingToken () \n      public\n      onlyOwner\n    {\n        require(hasEnded());\n        token.transfer(TEAM_VESTING_WALLET, token.balanceOf(this));\n    }\n\n\n}",
  "sourcePath": "/Users/alexandreduquenoy/Documents/origaminetwork/contracts/OrigamiTokenCrowdsale.sol",
  "compiler": {
    "name": "solc",
    "version": "0.4.18+commit.9cf6e910.Emscripten.clang"
  },
  "schemaVersion": "1.0.1",
  "updatedAt": "2017-12-07T21:16:46.374Z"
}